:0A02E7001202F1AF2212000680F9A6
:1002CB003F065B4F666D7D077F6F777C395E79717B
:10000600E48F1FF51EF51DF51C7B107A27F9F8AE57
:100016001EAD1DAC1C120160AC00AD01AE02AF03FB
:10002600E47BE87A03F9F812016074CB2FF5827449
:10003600023EF583E493FFE48F0BF50AF509F50814
:100046007BE87A03F9F8AF1FAE1EAD1DAC1C12019A
:1000560060AC00AD01AE02AF03E47B64FAF9F812BE
:10006600016074CB2FF58274023EF583E493FFE4BE
:100076008F0FF50EF50DF50C7B64FAF9F8AF1FAE90
:100086001EAD1DAC1C120160AC00AD01AE02AF038B
:10009600E47B0AFAF9F812016074CB2FF582740238
:1000A6003EF583E493FFE48F13F512F511F5107B0B
:1000B6000AFAF9F8AF1FAE1EAD1DAC1C1201607432
:1000C600CB2BF58274023AF583E493FFE48F17F5A0
:1000D60016F515F514F529E52925E025E02408F897
:1000E6001201F28F80E52914600E14601314601457
:1000F60024037016C2A28002D2A2C2A3C2A4800A9E
:10010600C2A28002D2A2D2A3C2A47F647E0012023F
:0D0116009B0529E529C3940440BDE4F58054
:0101230022B9
:10029B00D3EF9400EE940040147DC8D3ED648094AA
:0D02AB008040031D80F5EF1F70E61E80E30C
:0102B8002223
:0902F10043A881438801D2B22226
:1002B900AD071FED600BE4FEEEC3940D50F20E8006
:0102C900F73D
:0102CA002211
:030003000201FEF9
:1001FE00C0E0C0D075D000C000C004C005C006C0AD
:01020E0007E8
:10020F00752800C2A87F051202B930B204D2A880A7
:10021F006C20B2077F011202B980F6E4FC7527004B
:10022F0030B2077F011202B980F620B2077F0112A8
:10023F0002B980F630B2127F011202B90528E52803
:10024F00C3941E40EFD2A8803474202CF8C000E66F
:10025F00C313D000F6E528C39408400874202CF887
:10026F00E64480F67528000527E527C3940840B0BB
:0D027F000CEC640470A7E523F46522D2A8FE
:0F028C00D007D006D005D004D000D0D0D0E032BB
:030000000202DB1E
:0C02DB00787FE4F6D8FD7581290202E767
:1001240075F008758200EF2FFFEE33FECD33CDCC92
:1001340033CCC58233C5829BED9AEC99E582984015
:100144000CF582EE9BFEED9AFDEC99FC0FD5F0D6F2
:10015400E4CEFBE4CDFAE4CCF9A88222B800C1B91C
:100164000059BA002DEC8BF084CFCECDFCE5F0CB5A
:10017400F97818EF2FFFEE33FEED33FDEC33FCEB93
:1001840033FB10D703994004EB99FB0FD8E5E4F94E
:10019400FA227818EF2FFFEE33FEED33FDEC33FC3B
:1001A400C933C910D7059BE99A4007EC9BFCE99A2F
:1001B400F90FD8E0E4C9FAE4CCFB2275F010EF2F74
:1001C400FFEE33FEED33FDCC33CCC833C810D70774
:1001D4009BEC9AE899400AED9BFDEC9AFCE899F8AF
:0E01E4000FD5F0DAE4CDFBE4CCFAE4C8F92242
:0C01F200E6FC08E6FD08E6FE08E6FF2239
:00000001FF
